{
  "contractName": "CertsContract",
  "abi": [
    {
      "anonymous": false,
      "inputs": [
        {
          "indexed": true,
          "internalType": "address",
          "name": "previousOwner",
          "type": "address"
        },
        {
          "indexed": true,
          "internalType": "address",
          "name": "newOwner",
          "type": "address"
        }
      ],
      "name": "OwnershipTransferred",
      "type": "event"
    },
    {
      "anonymous": false,
      "inputs": [
        {
          "indexed": false,
          "internalType": "address",
          "name": "owner",
          "type": "address"
        },
        {
          "indexed": false,
          "internalType": "uint256",
          "name": "funding",
          "type": "uint256"
        }
      ],
      "name": "funded",
      "type": "event"
    },
    {
      "inputs": [],
      "name": "ContractBalance",
      "outputs": [
        {
          "internalType": "uint256",
          "name": "",
          "type": "uint256"
        }
      ],
      "stateMutability": "view",
      "type": "function",
      "constant": true
    },
    {
      "inputs": [],
      "name": "owner",
      "outputs": [
        {
          "internalType": "address",
          "name": "",
          "type": "address"
        }
      ],
      "stateMutability": "view",
      "type": "function",
      "constant": true
    },
    {
      "inputs": [],
      "name": "renounceOwnership",
      "outputs": [],
      "stateMutability": "nonpayable",
      "type": "function"
    },
    {
      "inputs": [],
      "name": "studentCount",
      "outputs": [
        {
          "internalType": "uint256",
          "name": "",
          "type": "uint256"
        }
      ],
      "stateMutability": "view",
      "type": "function",
      "constant": true
    },
    {
      "inputs": [
        {
          "internalType": "uint256",
          "name": "",
          "type": "uint256"
        }
      ],
      "name": "students",
      "outputs": [
        {
          "internalType": "uint256",
          "name": "_id",
          "type": "uint256"
        },
        {
          "internalType": "string",
          "name": "_firstName",
          "type": "string"
        },
        {
          "internalType": "string",
          "name": "_lastName",
          "type": "string"
        }
      ],
      "stateMutability": "view",
      "type": "function",
      "constant": true
    },
    {
      "inputs": [
        {
          "internalType": "address",
          "name": "newOwner",
          "type": "address"
        }
      ],
      "name": "transferOwnership",
      "outputs": [],
      "stateMutability": "nonpayable",
      "type": "function"
    },
    {
      "inputs": [
        {
          "internalType": "string",
          "name": "firstName",
          "type": "string"
        },
        {
          "internalType": "string",
          "name": "lastName",
          "type": "string"
        }
      ],
      "name": "addStudent",
      "outputs": [],
      "stateMutability": "payable",
      "type": "function",
      "payable": true
    },
    {
      "inputs": [],
      "name": "getBalance",
      "outputs": [
        {
          "internalType": "uint256",
          "name": "",
          "type": "uint256"
        }
      ],
      "stateMutability": "view",
      "type": "function",
      "constant": true
    },
    {
      "inputs": [],
      "name": "fundContract",
      "outputs": [],
      "stateMutability": "payable",
      "type": "function",
      "payable": true
    }
  ],
  "bytecode": "0x6080604052600060025534801561001557600080fd5b5060006100266100c960201b60201c565b9050806000806101000a81548173ffffffffffffffffffffffffffffffffffffffff021916908373ffffffffffffffffffffffffffffffffffffffff1602179055508073ffffffffffffffffffffffffffffffffffffffff16600073ffffffffffffffffffffffffffffffffffffffff167f8be0079c531659141344cd1fd0a4f28419497f9722a3daafe3b4186f6b6457e060405160405180910390a3506100d1565b600033905090565b610e4b806100e06000396000f3fe6080604052600436106100865760003560e01c80638da5cb5b116100595780638da5cb5b14610137578063bd097e2114610162578063e27bb1f71461016c578063e581f9ee14610188578063f2fde38b146101b357610086565b806306ead22e1461008b57806312065fe0146100ca5780633b668059146100f5578063715018a614610120575b600080fd5b34801561009757600080fd5b506100b260048036038101906100ad91906109bc565b6101dc565b6040516100c193929190610b81565b60405180910390f35b3480156100d657600080fd5b506100df610316565b6040516100ec9190610b66565b60405180910390f35b34801561010157600080fd5b5061010a610320565b6040516101179190610b66565b60405180910390f35b34801561012c57600080fd5b50610135610326565b005b34801561014357600080fd5b5061014c610460565b6040516101599190610ae2565b60405180910390f35b61016a610489565b005b61018660048036038101906101819190610950565b61059a565b005b34801561019457600080fd5b5061019d61061f565b6040516101aa9190610b66565b60405180910390f35b3480156101bf57600080fd5b506101da60048036038101906101d59190610927565b610625565b005b600360205280600052604060002060009150905080600001549080600101805461020590610d17565b80601f016020809104026020016040519081016040528092919081815260200182805461023190610d17565b801561027e5780601f106102535761010080835404028352916020019161027e565b820191906000526020600020905b81548152906001019060200180831161026157829003601f168201915b50505050509080600201805461029390610d17565b80601f01602080910402602001604051908101604052809291908181526020018280546102bf90610d17565b801561030c5780601f106102e15761010080835404028352916020019161030c565b820191906000526020600020905b8154815290600101906020018083116102ef57829003601f168201915b5050505050905083565b6000600154905090565b60015481565b61032e6107ce565b73ffffffffffffffffffffffffffffffffffffffff1661034c610460565b73ffffffffffffffffffffffffffffffffffffffff16146103a2576040517f08c379a000000000000000000000000000000000000000000000000000000000815260040161039990610b46565b60405180910390fd5b600073ffffffffffffffffffffffffffffffffffffffff1660008054906101000a900473ffffffffffffffffffffffffffffffffffffffff1673ffffffffffffffffffffffffffffffffffffffff167f8be0079c531659141344cd1fd0a4f28419497f9722a3daafe3b4186f6b6457e060405160405180910390a360008060006101000a81548173ffffffffffffffffffffffffffffffffffffffff021916908373ffffffffffffffffffffffffffffffffffffffff160217905550565b60008060009054906101000a900473ffffffffffffffffffffffffffffffffffffffff16905090565b6104916107ce565b73ffffffffffffffffffffffffffffffffffffffff166104af610460565b73ffffffffffffffffffffffffffffffffffffffff1614610505576040517f08c379a00000000000000000000000000000000000000000000000000000000081526004016104fc90610b46565b60405180910390fd5b600034141561051357600080fd5b346001546105219190610c43565b6001819055507fed7d0ddcc17abdb3935a0a23cd93e91b449dfeac7fd0def9f481ed5b37e18c4d3334604051610558929190610afd565b60405180910390a14760015414610598577f4e487b7100000000000000000000000000000000000000000000000000000000600052600160045260246000fd5b565b6105a26107d6565b60405180606001604052806002548152602001838152602001828152506003600060025481526020019081526020016000206000820151816000015560208201518160010190805190602001906105fa9291906107f2565b5060408201518160020190805190602001906106179291906107f2565b509050505050565b60025481565b61062d6107ce565b73ffffffffffffffffffffffffffffffffffffffff1661064b610460565b73ffffffffffffffffffffffffffffffffffffffff16146106a1576040517f08c379a000000000000000000000000000000000000000000000000000000000815260040161069890610b46565b60405180910390fd5b600073ffffffffffffffffffffffffffffffffffffffff168173ffffffffffffffffffffffffffffffffffffffff161415610711576040517f08c379a000000000000000000000000000000000000000000000000000000000815260040161070890610b26565b60405180910390fd5b8073ffffffffffffffffffffffffffffffffffffffff1660008054906101000a900473ffffffffffffffffffffffffffffffffffffffff1673ffffffffffffffffffffffffffffffffffffffff167f8be0079c531659141344cd1fd0a4f28419497f9722a3daafe3b4186f6b6457e060405160405180910390a3806000806101000a81548173ffffffffffffffffffffffffffffffffffffffff021916908373ffffffffffffffffffffffffffffffffffffffff16021790555050565b600033905090565b6001600260008282546107e99190610c43565b92505081905550565b8280546107fe90610d17565b90600052602060002090601f0160209004810192826108205760008555610867565b82601f1061083957805160ff1916838001178555610867565b82800160010185558215610867579182015b8281111561086657825182559160200191906001019061084b565b5b5090506108749190610878565b5090565b5b80821115610891576000816000905550600101610879565b5090565b60006108a86108a384610bf7565b610bc6565b9050828152602081018484840111156108c057600080fd5b6108cb848285610cd5565b509392505050565b6000813590506108e281610de7565b92915050565b600082601f8301126108f957600080fd5b8135610909848260208601610895565b91505092915050565b60008135905061092181610dfe565b92915050565b60006020828403121561093957600080fd5b6000610947848285016108d3565b91505092915050565b6000806040838503121561096357600080fd5b600083013567ffffffffffffffff81111561097d57600080fd5b610989858286016108e8565b925050602083013567ffffffffffffffff8111156109a657600080fd5b6109b2858286016108e8565b9150509250929050565b6000602082840312156109ce57600080fd5b60006109dc84828501610912565b91505092915050565b6109ee81610c99565b82525050565b60006109ff82610c27565b610a098185610c32565b9350610a19818560208601610ce4565b610a2281610dd6565b840191505092915050565b6000610a3a602683610c32565b91507f4f776e61626c653a206e6577206f776e657220697320746865207a65726f206160008301527f64647265737300000000000000000000000000000000000000000000000000006020830152604082019050919050565b6000610aa0602083610c32565b91507f4f776e61626c653a2063616c6c6572206973206e6f7420746865206f776e65726000830152602082019050919050565b610adc81610ccb565b82525050565b6000602082019050610af760008301846109e5565b92915050565b6000604082019050610b1260008301856109e5565b610b1f6020830184610ad3565b9392505050565b60006020820190508181036000830152610b3f81610a2d565b9050919050565b60006020820190508181036000830152610b5f81610a93565b9050919050565b6000602082019050610b7b6000830184610ad3565b92915050565b6000606082019050610b966000830186610ad3565b8181036020830152610ba881856109f4565b90508181036040830152610bbc81846109f4565b9050949350505050565b6000604051905081810181811067ffffffffffffffff82111715610bed57610bec610da7565b5b8060405250919050565b600067ffffffffffffffff821115610c1257610c11610da7565b5b601f19601f8301169050602081019050919050565b600081519050919050565b600082825260208201905092915050565b6000610c4e82610ccb565b9150610c5983610ccb565b9250827fffffffffffffffffffffffffffffffffffffffffffffffffffffffffffffffff03821115610c8e57610c8d610d49565b5b828201905092915050565b6000610ca482610cab565b9050919050565b600073ffffffffffffffffffffffffffffffffffffffff82169050919050565b6000819050919050565b82818337600083830152505050565b60005b83811015610d02578082015181840152602081019050610ce7565b83811115610d11576000848401525b50505050565b60006002820490506001821680610d2f57607f821691505b60208210811415610d4357610d42610d78565b5b50919050565b7f4e487b7100000000000000000000000000000000000000000000000000000000600052601160045260246000fd5b7f4e487b7100000000000000000000000000000000000000000000000000000000600052602260045260246000fd5b7f4e487b7100000000000000000000000000000000000000000000000000000000600052604160045260246000fd5b6000601f19601f8301169050919050565b610df081610c99565b8114610dfb57600080fd5b50565b610e0781610ccb565b8114610e1257600080fd5b5056fea2646970667358221220372a290934dddb96255c93ddecef8bbbb8253b44747fa23e57e60350f84d41d464736f6c63430008000033",
  "immutableReferences": {},
  "source": "import \"../node_modules/@openzeppelin/contracts/access/Ownable.sol\";\n// import \"../node_modules/@openzeppelin/contracts/math/SafeMath.sol\";\n\npragma solidity ^0.8.0;\n\ncontract CertsContract is Ownable {\n// contract CertsContract {\n    uint public ContractBalance;\n    // address public owner = msg.sender;\n    uint256 public studentCount = 0;\n    mapping(uint => Student) public students;\n\n    event funded(address owner, uint funding);\n    \n    struct Student {\n        uint _id;\n        string _firstName;\n        string _lastName;\n    }\n\n    struct StudentCert {\n        uint _studentId;\n        string _university;\n        string _program;\n        string _description;\n        string _date;\n    }\n\n//   modifier onlyOwner() {\n//     require(\n//       msg.sender == owner,\n//       \"This function is restricted to the contract's owner\"\n//     );\n//     _;\n//   }\n\n    function addStudent(string memory firstName, string memory lastName) public payable {\n        incrementCount();\n        students[studentCount] = Student(studentCount, firstName, lastName);\n    }\n\n    function incrementCount() internal {\n        studentCount += 1;\n    }\n\n    // Function to get the Balance of the Contract\n    function getBalance() public view returns (uint) {\n        return ContractBalance;\n    }\n\n    // Fund the Contract\n    function fundContract() public payable onlyOwner {\n        require(msg.value != 0);\n        ContractBalance = ContractBalance + msg.value;\n        emit funded(msg.sender, msg.value);\n        assert(ContractBalance == address(this).balance);\n    }\n}",
  "sourcePath": "/Users/alouisequiatchon/home/certs-dapp/truffle/contracts/certsContract.sol",
  "compiler": {
    "name": "solc",
    "version": "0.8.0+commit.c7dfd78e.Emscripten.clang"
  },
  "schemaVersion": "3.3.4",
  "updatedAt": "2021-04-22T08:03:50.638Z",
  "networkType": "ethereum",
  "devdoc": {
    "kind": "dev",
    "methods": {
      "owner()": {
        "details": "Returns the address of the current owner."
      },
      "renounceOwnership()": {
        "details": "Leaves the contract without owner. It will not be possible to call `onlyOwner` functions anymore. Can only be called by the current owner. NOTE: Renouncing ownership will leave the contract without an owner, thereby removing any functionality that is only available to the owner."
      },
      "transferOwnership(address)": {
        "details": "Transfers ownership of the contract to a new account (`newOwner`). Can only be called by the current owner."
      }
    },
    "version": 1
  },
  "userdoc": {
    "kind": "user",
    "methods": {},
    "version": 1
  }
}