{
  "contractName": "CertsContract",
  "abi": [
    {
      "inputs": [],
      "name": "studentCount",
      "outputs": [
        {
          "internalType": "uint256",
          "name": "",
          "type": "uint256"
        }
      ],
      "stateMutability": "view",
      "type": "function"
    },
    {
      "inputs": [
        {
          "internalType": "uint256",
          "name": "",
          "type": "uint256"
        }
      ],
      "name": "students",
      "outputs": [
        {
          "internalType": "uint256",
          "name": "_id",
          "type": "uint256"
        },
        {
          "internalType": "string",
          "name": "_firstName",
          "type": "string"
        },
        {
          "internalType": "string",
          "name": "_lastName",
          "type": "string"
        }
      ],
      "stateMutability": "view",
      "type": "function"
    },
    {
      "inputs": [
        {
          "internalType": "string",
          "name": "firstName",
          "type": "string"
        },
        {
          "internalType": "string",
          "name": "lastName",
          "type": "string"
        }
      ],
      "name": "addStudent",
      "outputs": [],
      "stateMutability": "nonpayable",
      "type": "function"
    }
  ],
  "bytecode": "0x60806040526000805534801561001457600080fd5b5061072a806100246000396000f3fe608060405234801561001057600080fd5b50600436106100415760003560e01c806306ead22e14610046578063e27bb1f714610078578063e581f9ee14610094575b600080fd5b610060600480360381019061005b919061041d565b6100b2565b60405161006f939291906104a9565b60405180910390f35b610092600480360381019061008d91906103b1565b6101ec565b005b61009c610270565b6040516100a9919061048e565b60405180910390f35b60016020528060005260406000206000915090508060000154908060010180546100db9061060d565b80601f01602080910402602001604051908101604052809291908181526020018280546101079061060d565b80156101545780601f1061012957610100808354040283529160200191610154565b820191906000526020600020905b81548152906001019060200180831161013757829003601f168201915b5050505050908060020180546101699061060d565b80601f01602080910402602001604051908101604052809291908181526020018280546101959061060d565b80156101e25780601f106101b7576101008083540402835291602001916101e2565b820191906000526020600020905b8154815290600101906020018083116101c557829003601f168201915b5050505050905083565b6101f4610276565b6040518060600160405280600054815260200183815260200182815250600160008054815260200190815260200160002060008201518160000155602082015181600101908051906020019061024b929190610291565b506040820151816002019080519060200190610268929190610291565b509050505050565b60005481565b6001600080828254610288919061056b565b92505081905550565b82805461029d9061060d565b90600052602060002090601f0160209004810192826102bf5760008555610306565b82601f106102d857805160ff1916838001178555610306565b82800160010185558215610306579182015b828111156103055782518255916020019190600101906102ea565b5b5090506103139190610317565b5090565b5b80821115610330576000816000905550600101610318565b5090565b60006103476103428461051f565b6104ee565b90508281526020810184848401111561035f57600080fd5b61036a8482856105cb565b509392505050565b600082601f83011261038357600080fd5b8135610393848260208601610334565b91505092915050565b6000813590506103ab816106dd565b92915050565b600080604083850312156103c457600080fd5b600083013567ffffffffffffffff8111156103de57600080fd5b6103ea85828601610372565b925050602083013567ffffffffffffffff81111561040757600080fd5b61041385828601610372565b9150509250929050565b60006020828403121561042f57600080fd5b600061043d8482850161039c565b91505092915050565b60006104518261054f565b61045b818561055a565b935061046b8185602086016105da565b610474816106cc565b840191505092915050565b610488816105c1565b82525050565b60006020820190506104a3600083018461047f565b92915050565b60006060820190506104be600083018661047f565b81810360208301526104d08185610446565b905081810360408301526104e48184610446565b9050949350505050565b6000604051905081810181811067ffffffffffffffff821117156105155761051461069d565b5b8060405250919050565b600067ffffffffffffffff82111561053a5761053961069d565b5b601f19601f8301169050602081019050919050565b600081519050919050565b600082825260208201905092915050565b6000610576826105c1565b9150610581836105c1565b9250827fffffffffffffffffffffffffffffffffffffffffffffffffffffffffffffffff038211156105b6576105b561063f565b5b828201905092915050565b6000819050919050565b82818337600083830152505050565b60005b838110156105f85780820151818401526020810190506105dd565b83811115610607576000848401525b50505050565b6000600282049050600182168061062557607f821691505b602082108114156106395761063861066e565b5b50919050565b7f4e487b7100000000000000000000000000000000000000000000000000000000600052601160045260246000fd5b7f4e487b7100000000000000000000000000000000000000000000000000000000600052602260045260246000fd5b7f4e487b7100000000000000000000000000000000000000000000000000000000600052604160045260246000fd5b6000601f19601f8301169050919050565b6106e6816105c1565b81146106f157600080fd5b5056fea2646970667358221220df6aa90c5a00a69ab502b42f9f48dbe37f693429509186bdba2183a926451d3c64736f6c63430008000033",
  "immutableReferences": {},
  "source": "// import \"../node_modules/@openzeppelin/contracts/access/Ownable.sol\";\n// import \"../node_modules/@openzeppelin/contracts/math/SafeMath.sol\";\n\npragma solidity ^0.8.0;\n\ncontract CertsContract {\n    uint256 public studentCount = 0;\n    mapping(uint => Student) public students;\n    \n    struct Student {\n        uint _id;\n        string _firstName;\n        string _lastName;\n    }\n\n    struct StudentCert {\n        uint _studentId;\n        string _university;\n        string _program;\n        string _description;\n        string _date;\n    }\n\n    function addStudent(string memory firstName, string memory lastName) public {\n        incrementCount();\n        students[studentCount] = Student(studentCount, firstName, lastName);\n    }\n\n    function incrementCount() internal {\n        studentCount += 1;\n    }\n}",
  "sourcePath": "/Users/alouisequiatchon/home/certs-dapp/truffle/contracts/certsContract.sol",
  "compiler": {
    "name": "solc",
    "version": "0.8.0+commit.c7dfd78e.Emscripten.clang"
  },
  "schemaVersion": "3.3.4",
  "updatedAt": "2021-04-21T16:55:11.891Z",
  "devdoc": {
    "kind": "dev",
    "methods": {},
    "version": 1
  },
  "userdoc": {
    "kind": "user",
    "methods": {},
    "version": 1
  }
}