{
  "contractName": "CertsContract",
  "abi": [
    {
      "anonymous": false,
      "inputs": [
        {
          "indexed": true,
          "internalType": "address",
          "name": "previousOwner",
          "type": "address"
        },
        {
          "indexed": true,
          "internalType": "address",
          "name": "newOwner",
          "type": "address"
        }
      ],
      "name": "OwnershipTransferred",
      "type": "event"
    },
    {
      "anonymous": false,
      "inputs": [
        {
          "components": [
            {
              "internalType": "uint256",
              "name": "_studentId",
              "type": "uint256"
            },
            {
              "internalType": "string",
              "name": "_firstName",
              "type": "string"
            },
            {
              "internalType": "string",
              "name": "_lastName",
              "type": "string"
            },
            {
              "internalType": "string",
              "name": "_university",
              "type": "string"
            },
            {
              "internalType": "string",
              "name": "_program",
              "type": "string"
            },
            {
              "internalType": "string",
              "name": "_description",
              "type": "string"
            },
            {
              "internalType": "string",
              "name": "_date",
              "type": "string"
            }
          ],
          "indexed": false,
          "internalType": "struct CertsContract.StudentCert",
          "name": "student",
          "type": "tuple"
        }
      ],
      "name": "certAdded",
      "type": "event"
    },
    {
      "anonymous": false,
      "inputs": [
        {
          "indexed": false,
          "internalType": "address",
          "name": "owner",
          "type": "address"
        },
        {
          "indexed": false,
          "internalType": "uint256",
          "name": "funding",
          "type": "uint256"
        }
      ],
      "name": "funded",
      "type": "event"
    },
    {
      "inputs": [],
      "name": "ContractBalance",
      "outputs": [
        {
          "internalType": "uint256",
          "name": "",
          "type": "uint256"
        }
      ],
      "stateMutability": "view",
      "type": "function",
      "constant": true
    },
    {
      "inputs": [],
      "name": "owner",
      "outputs": [
        {
          "internalType": "address",
          "name": "",
          "type": "address"
        }
      ],
      "stateMutability": "view",
      "type": "function",
      "constant": true
    },
    {
      "inputs": [],
      "name": "renounceOwnership",
      "outputs": [],
      "stateMutability": "nonpayable",
      "type": "function"
    },
    {
      "inputs": [],
      "name": "studentCount",
      "outputs": [
        {
          "internalType": "uint256",
          "name": "",
          "type": "uint256"
        }
      ],
      "stateMutability": "view",
      "type": "function",
      "constant": true
    },
    {
      "inputs": [
        {
          "internalType": "uint256",
          "name": "",
          "type": "uint256"
        }
      ],
      "name": "students",
      "outputs": [
        {
          "internalType": "uint256",
          "name": "_studentId",
          "type": "uint256"
        },
        {
          "internalType": "string",
          "name": "_firstName",
          "type": "string"
        },
        {
          "internalType": "string",
          "name": "_lastName",
          "type": "string"
        },
        {
          "internalType": "string",
          "name": "_university",
          "type": "string"
        },
        {
          "internalType": "string",
          "name": "_program",
          "type": "string"
        },
        {
          "internalType": "string",
          "name": "_description",
          "type": "string"
        },
        {
          "internalType": "string",
          "name": "_date",
          "type": "string"
        }
      ],
      "stateMutability": "view",
      "type": "function",
      "constant": true
    },
    {
      "inputs": [
        {
          "internalType": "address",
          "name": "newOwner",
          "type": "address"
        }
      ],
      "name": "transferOwnership",
      "outputs": [],
      "stateMutability": "nonpayable",
      "type": "function"
    },
    {
      "inputs": [
        {
          "internalType": "string",
          "name": "firstName",
          "type": "string"
        },
        {
          "internalType": "string",
          "name": "lastName",
          "type": "string"
        },
        {
          "internalType": "string",
          "name": "university",
          "type": "string"
        },
        {
          "internalType": "string",
          "name": "program",
          "type": "string"
        },
        {
          "internalType": "string",
          "name": "description",
          "type": "string"
        },
        {
          "internalType": "string",
          "name": "date",
          "type": "string"
        }
      ],
      "name": "addStudentCert",
      "outputs": [],
      "stateMutability": "payable",
      "type": "function",
      "payable": true
    },
    {
      "inputs": [],
      "name": "getBalance",
      "outputs": [
        {
          "internalType": "uint256",
          "name": "",
          "type": "uint256"
        }
      ],
      "stateMutability": "view",
      "type": "function",
      "constant": true
    },
    {
      "inputs": [],
      "name": "fundContract",
      "outputs": [],
      "stateMutability": "payable",
      "type": "function",
      "payable": true
    }
  ],
  "bytecode": "0x6080604052600060025534801561001557600080fd5b5060006100266100c960201b60201c565b9050806000806101000a81548173ffffffffffffffffffffffffffffffffffffffff021916908373ffffffffffffffffffffffffffffffffffffffff1602179055508073ffffffffffffffffffffffffffffffffffffffff16600073ffffffffffffffffffffffffffffffffffffffff167f8be0079c531659141344cd1fd0a4f28419497f9722a3daafe3b4186f6b6457e060405160405180910390a3506100d1565b600033905090565b61144a806100e06000396000f3fe6080604052600436106100865760003560e01c8063715018a611610059578063715018a6146101405780638da5cb5b14610157578063bd097e2114610182578063e581f9ee1461018c578063f2fde38b146101b757610086565b806306ead22e1461008b57806312065fe0146100ce5780632eca972d146100f95780633b66805914610115575b600080fd5b34801561009757600080fd5b506100b260048036038101906100ad9190610d99565b6101e0565b6040516100c597969594939291906110d5565b60405180910390f35b3480156100da57600080fd5b506100e3610552565b6040516100f091906110ba565b60405180910390f35b610113600480360381019061010e9190610c80565b61055c565b005b34801561012157600080fd5b5061012a6106d5565b60405161013791906110ba565b60405180910390f35b34801561014c57600080fd5b506101556106db565b005b34801561016357600080fd5b5061016c610815565b6040516101799190611014565b60405180910390f35b61018a61083e565b005b34801561019857600080fd5b506101a161094f565b6040516101ae91906110ba565b60405180910390f35b3480156101c357600080fd5b506101de60048036038101906101d99190610c57565b610955565b005b6003602052806000526040600020600091509050806000015490806001018054610209906112ef565b80601f0160208091040260200160405190810160405280929190818152602001828054610235906112ef565b80156102825780601f1061025757610100808354040283529160200191610282565b820191906000526020600020905b81548152906001019060200180831161026557829003601f168201915b505050505090806002018054610297906112ef565b80601f01602080910402602001604051908101604052809291908181526020018280546102c3906112ef565b80156103105780601f106102e557610100808354040283529160200191610310565b820191906000526020600020905b8154815290600101906020018083116102f357829003601f168201915b505050505090806003018054610325906112ef565b80601f0160208091040260200160405190810160405280929190818152602001828054610351906112ef565b801561039e5780601f106103735761010080835404028352916020019161039e565b820191906000526020600020905b81548152906001019060200180831161038157829003601f168201915b5050505050908060040180546103b3906112ef565b80601f01602080910402602001604051908101604052809291908181526020018280546103df906112ef565b801561042c5780601f106104015761010080835404028352916020019161042c565b820191906000526020600020905b81548152906001019060200180831161040f57829003601f168201915b505050505090806005018054610441906112ef565b80601f016020809104026020016040519081016040528092919081815260200182805461046d906112ef565b80156104ba5780601f1061048f576101008083540402835291602001916104ba565b820191906000526020600020905b81548152906001019060200180831161049d57829003601f168201915b5050505050908060060180546104cf906112ef565b80601f01602080910402602001604051908101604052809291908181526020018280546104fb906112ef565b80156105485780601f1061051d57610100808354040283529160200191610548565b820191906000526020600020905b81548152906001019060200180831161052b57829003601f168201915b5050505050905087565b6000600154905090565b610564610afe565b34600160008282546105769190611211565b925050819055506040518060e001604052806002548152602001878152602001868152602001858152602001848152602001838152602001828152506003600060025481526020019081526020016000206000820151816000015560208201518160010190805190602001906105ed929190610b22565b50604082015181600201908051906020019061060a929190610b22565b506060820151816003019080519060200190610627929190610b22565b506080820151816004019080519060200190610644929190610b22565b5060a0820151816005019080519060200190610661929190610b22565b5060c082015181600601908051906020019061067e929190610b22565b509050507f3d6b2ac57f3418aef74a1be295e451bde246584e581b3347e96b27ebc42b21666003600060025481526020019081526020016000206040516106c59190611098565b60405180910390a1505050505050565b60015481565b6106e3610b1a565b73ffffffffffffffffffffffffffffffffffffffff16610701610815565b73ffffffffffffffffffffffffffffffffffffffff1614610757576040517f08c379a000000000000000000000000000000000000000000000000000000000815260040161074e90611078565b60405180910390fd5b600073ffffffffffffffffffffffffffffffffffffffff1660008054906101000a900473ffffffffffffffffffffffffffffffffffffffff1673ffffffffffffffffffffffffffffffffffffffff167f8be0079c531659141344cd1fd0a4f28419497f9722a3daafe3b4186f6b6457e060405160405180910390a360008060006101000a81548173ffffffffffffffffffffffffffffffffffffffff021916908373ffffffffffffffffffffffffffffffffffffffff160217905550565b60008060009054906101000a900473ffffffffffffffffffffffffffffffffffffffff16905090565b610846610b1a565b73ffffffffffffffffffffffffffffffffffffffff16610864610815565b73ffffffffffffffffffffffffffffffffffffffff16146108ba576040517f08c379a00000000000000000000000000000000000000000000000000000000081526004016108b190611078565b60405180910390fd5b60003414156108c857600080fd5b346001546108d69190611211565b6001819055507fed7d0ddcc17abdb3935a0a23cd93e91b449dfeac7fd0def9f481ed5b37e18c4d333460405161090d92919061102f565b60405180910390a1476001541461094d577f4e487b7100000000000000000000000000000000000000000000000000000000600052600160045260246000fd5b565b60025481565b61095d610b1a565b73ffffffffffffffffffffffffffffffffffffffff1661097b610815565b73ffffffffffffffffffffffffffffffffffffffff16146109d1576040517f08c379a00000000000000000000000000000000000000000000000000000000081526004016109c890611078565b60405180910390fd5b600073ffffffffffffffffffffffffffffffffffffffff168173ffffffffffffffffffffffffffffffffffffffff161415610a41576040517f08c379a0000000000000000000000000000000000000000000000000000000008152600401610a3890611058565b60405180910390fd5b8073ffffffffffffffffffffffffffffffffffffffff1660008054906101000a900473ffffffffffffffffffffffffffffffffffffffff1673ffffffffffffffffffffffffffffffffffffffff167f8be0079c531659141344cd1fd0a4f28419497f9722a3daafe3b4186f6b6457e060405160405180910390a3806000806101000a81548173ffffffffffffffffffffffffffffffffffffffff021916908373ffffffffffffffffffffffffffffffffffffffff16021790555050565b600160026000828254610b119190611211565b92505081905550565b600033905090565b828054610b2e906112ef565b90600052602060002090601f016020900481019282610b505760008555610b97565b82601f10610b6957805160ff1916838001178555610b97565b82800160010185558215610b97579182015b82811115610b96578251825591602001919060010190610b7b565b5b509050610ba49190610ba8565b5090565b5b80821115610bc1576000816000905550600101610ba9565b5090565b6000610bd8610bd38461119f565b61116e565b905082815260208101848484011115610bf057600080fd5b610bfb8482856112ad565b509392505050565b600081359050610c12816113e6565b92915050565b600082601f830112610c2957600080fd5b8135610c39848260208601610bc5565b91505092915050565b600081359050610c51816113fd565b92915050565b600060208284031215610c6957600080fd5b6000610c7784828501610c03565b91505092915050565b60008060008060008060c08789031215610c9957600080fd5b600087013567ffffffffffffffff811115610cb357600080fd5b610cbf89828a01610c18565b965050602087013567ffffffffffffffff811115610cdc57600080fd5b610ce889828a01610c18565b955050604087013567ffffffffffffffff811115610d0557600080fd5b610d1189828a01610c18565b945050606087013567ffffffffffffffff811115610d2e57600080fd5b610d3a89828a01610c18565b935050608087013567ffffffffffffffff811115610d5757600080fd5b610d6389828a01610c18565b92505060a087013567ffffffffffffffff811115610d8057600080fd5b610d8c89828a01610c18565b9150509295509295509295565b600060208284031215610dab57600080fd5b6000610db984828501610c42565b91505092915050565b610dcb81611271565b82525050565b6000610ddc826111e4565b610de68185611200565b9350610df68185602086016112bc565b610dff816113c8565b840191505092915050565b60008154610e17816112ef565b610e2181866111ef565b94506001821660008114610e3c5760018114610e4e57610e81565b60ff1983168652602086019350610e81565b610e57856111cf565b60005b83811015610e7957815481890152600182019150602081019050610e5a565b808801955050505b50505092915050565b6000610e97602683611200565b91507f4f776e61626c653a206e6577206f776e657220697320746865207a65726f206160008301527f64647265737300000000000000000000000000000000000000000000000000006020830152604082019050919050565b6000610efd602083611200565b91507f4f776e61626c653a2063616c6c6572206973206e6f7420746865206f776e65726000830152602082019050919050565b600060e083016000808401549050610f4781611321565b610f546000870182610ff6565b50600184018583036020870152610f6b8382610e0a565b925050600284018583036040870152610f848382610e0a565b925050600384018583036060870152610f9d8382610e0a565b925050600484018583036080870152610fb68382610e0a565b9250506005840185830360a0870152610fcf8382610e0a565b9250506006840185830360c0870152610fe88382610e0a565b925050819250505092915050565b610fff816112a3565b82525050565b61100e816112a3565b82525050565b60006020820190506110296000830184610dc2565b92915050565b60006040820190506110446000830185610dc2565b6110516020830184611005565b9392505050565b6000602082019050818103600083015261107181610e8a565b9050919050565b6000602082019050818103600083015261109181610ef0565b9050919050565b600060208201905081810360008301526110b28184610f30565b905092915050565b60006020820190506110cf6000830184611005565b92915050565b600060e0820190506110ea600083018a611005565b81810360208301526110fc8189610dd1565b905081810360408301526111108188610dd1565b905081810360608301526111248187610dd1565b905081810360808301526111388186610dd1565b905081810360a083015261114c8185610dd1565b905081810360c08301526111608184610dd1565b905098975050505050505050565b6000604051905081810181811067ffffffffffffffff8211171561119557611194611399565b5b8060405250919050565b600067ffffffffffffffff8211156111ba576111b9611399565b5b601f19601f8301169050602081019050919050565b60008190508160005260206000209050919050565b600081519050919050565b600082825260208201905092915050565b600082825260208201905092915050565b600061121c826112a3565b9150611227836112a3565b9250827fffffffffffffffffffffffffffffffffffffffffffffffffffffffffffffffff0382111561125c5761125b61133b565b5b828201905092915050565b6000819050919050565b600061127c82611283565b9050919050565b600073ffffffffffffffffffffffffffffffffffffffff82169050919050565b6000819050919050565b82818337600083830152505050565b60005b838110156112da5780820151818401526020810190506112bf565b838111156112e9576000848401525b50505050565b6000600282049050600182168061130757607f821691505b6020821081141561131b5761131a61136a565b5b50919050565b600061133461132f836113d9565b611267565b9050919050565b7f4e487b7100000000000000000000000000000000000000000000000000000000600052601160045260246000fd5b7f4e487b7100000000000000000000000000000000000000000000000000000000600052602260045260246000fd5b7f4e487b7100000000000000000000000000000000000000000000000000000000600052604160045260246000fd5b6000601f19601f8301169050919050565b60008160001c9050919050565b6113ef81611271565b81146113fa57600080fd5b50565b611406816112a3565b811461141157600080fd5b5056fea2646970667358221220ecd2fc105fd95fd4174e4d92d5144379787b665f87ae16415984b86e7988bbe664736f6c63430008000033",
  "immutableReferences": {},
  "source": "import \"../node_modules/@openzeppelin/contracts/access/Ownable.sol\";\n\npragma solidity ^0.8.0;\n\ncontract CertsContract is Ownable {\n    uint public ContractBalance;\n    uint256 public studentCount = 0;\n    mapping(uint => StudentCert) public students;\n\n    event funded(address owner, uint funding);\n    event certAdded(StudentCert student);\n    \n    struct StudentCert {\n        uint _studentId;\n        string _firstName;\n        string _lastName;\n        string _university;\n        string _program;\n        string _description;\n        string _date;\n    }\n\n    function addStudentCert(string memory firstName, string memory lastName, string memory university, string memory program, string memory description, string memory date) public payable {\n        incrementCount();\n        ContractBalance += msg.value;\n        students[studentCount] = StudentCert(studentCount, firstName, lastName, university, program, description, date);\n        emit certAdded(students[studentCount]);\n    }\n\n    function incrementCount() internal {\n        studentCount += 1;\n    }\n\n    // Function to get the Balance of the Contract\n    function getBalance() public view returns (uint) {\n        return ContractBalance;\n    }\n\n    // Fund the Contract\n    function fundContract() public payable onlyOwner {\n        require(msg.value != 0);\n        ContractBalance = ContractBalance + msg.value;\n        emit funded(msg.sender, msg.value);\n        assert(ContractBalance == address(this).balance);\n    }\n}",
  "sourcePath": "/Users/alouisequiatchon/home/certs-dapp/truffle/contracts/certsContract.sol",
  "compiler": {
    "name": "solc",
    "version": "0.8.0+commit.c7dfd78e.Emscripten.clang"
  },
  "schemaVersion": "3.3.4",
  "updatedAt": "2021-04-22T21:59:21.139Z",
  "networkType": "ethereum",
  "devdoc": {
    "kind": "dev",
    "methods": {
      "owner()": {
        "details": "Returns the address of the current owner."
      },
      "renounceOwnership()": {
        "details": "Leaves the contract without owner. It will not be possible to call `onlyOwner` functions anymore. Can only be called by the current owner. NOTE: Renouncing ownership will leave the contract without an owner, thereby removing any functionality that is only available to the owner."
      },
      "transferOwnership(address)": {
        "details": "Transfers ownership of the contract to a new account (`newOwner`). Can only be called by the current owner."
      }
    },
    "version": 1
  },
  "userdoc": {
    "kind": "user",
    "methods": {},
    "version": 1
  }
}