{
  "contractName": "CertsContract",
  "abi": [
    {
      "anonymous": false,
      "inputs": [
        {
          "indexed": true,
          "internalType": "address",
          "name": "previousOwner",
          "type": "address"
        },
        {
          "indexed": true,
          "internalType": "address",
          "name": "newOwner",
          "type": "address"
        }
      ],
      "name": "OwnershipTransferred",
      "type": "event"
    },
    {
      "anonymous": false,
      "inputs": [
        {
          "indexed": false,
          "internalType": "uint256",
          "name": "studeintId",
          "type": "uint256"
        },
        {
          "indexed": false,
          "internalType": "string",
          "name": "student",
          "type": "string"
        },
        {
          "indexed": false,
          "internalType": "string",
          "name": "university",
          "type": "string"
        },
        {
          "indexed": false,
          "internalType": "string",
          "name": "program",
          "type": "string"
        },
        {
          "indexed": false,
          "internalType": "string",
          "name": "cert",
          "type": "string"
        },
        {
          "indexed": false,
          "internalType": "string",
          "name": "date",
          "type": "string"
        }
      ],
      "name": "certAdded",
      "type": "event"
    },
    {
      "anonymous": false,
      "inputs": [
        {
          "indexed": false,
          "internalType": "address",
          "name": "owner",
          "type": "address"
        },
        {
          "indexed": false,
          "internalType": "uint256",
          "name": "funding",
          "type": "uint256"
        }
      ],
      "name": "funded",
      "type": "event"
    },
    {
      "inputs": [],
      "name": "ContractBalance",
      "outputs": [
        {
          "internalType": "uint256",
          "name": "",
          "type": "uint256"
        }
      ],
      "stateMutability": "view",
      "type": "function",
      "constant": true
    },
    {
      "inputs": [],
      "name": "owner",
      "outputs": [
        {
          "internalType": "address",
          "name": "",
          "type": "address"
        }
      ],
      "stateMutability": "view",
      "type": "function",
      "constant": true
    },
    {
      "inputs": [],
      "name": "renounceOwnership",
      "outputs": [],
      "stateMutability": "nonpayable",
      "type": "function"
    },
    {
      "inputs": [],
      "name": "studentCount",
      "outputs": [
        {
          "internalType": "uint256",
          "name": "",
          "type": "uint256"
        }
      ],
      "stateMutability": "view",
      "type": "function",
      "constant": true
    },
    {
      "inputs": [
        {
          "internalType": "uint256",
          "name": "",
          "type": "uint256"
        }
      ],
      "name": "students",
      "outputs": [
        {
          "internalType": "uint256",
          "name": "_studentId",
          "type": "uint256"
        },
        {
          "internalType": "string",
          "name": "student",
          "type": "string"
        },
        {
          "internalType": "string",
          "name": "_university",
          "type": "string"
        },
        {
          "internalType": "string",
          "name": "_program",
          "type": "string"
        },
        {
          "internalType": "string",
          "name": "_cert",
          "type": "string"
        },
        {
          "internalType": "string",
          "name": "_date",
          "type": "string"
        }
      ],
      "stateMutability": "view",
      "type": "function",
      "constant": true
    },
    {
      "inputs": [
        {
          "internalType": "address",
          "name": "newOwner",
          "type": "address"
        }
      ],
      "name": "transferOwnership",
      "outputs": [],
      "stateMutability": "nonpayable",
      "type": "function"
    },
    {
      "inputs": [
        {
          "internalType": "string",
          "name": "student",
          "type": "string"
        },
        {
          "internalType": "string",
          "name": "university",
          "type": "string"
        },
        {
          "internalType": "string",
          "name": "program",
          "type": "string"
        },
        {
          "internalType": "string",
          "name": "cert",
          "type": "string"
        },
        {
          "internalType": "string",
          "name": "date",
          "type": "string"
        }
      ],
      "name": "addStudentCert",
      "outputs": [],
      "stateMutability": "payable",
      "type": "function",
      "payable": true
    },
    {
      "inputs": [],
      "name": "incrementCount",
      "outputs": [],
      "stateMutability": "nonpayable",
      "type": "function"
    },
    {
      "inputs": [],
      "name": "getBalance",
      "outputs": [
        {
          "internalType": "uint256",
          "name": "",
          "type": "uint256"
        }
      ],
      "stateMutability": "view",
      "type": "function",
      "constant": true
    },
    {
      "inputs": [],
      "name": "fundContract",
      "outputs": [],
      "stateMutability": "payable",
      "type": "function",
      "payable": true
    }
  ],
  "bytecode": "0x6080604052600060025534801561001557600080fd5b5060006100266100c960201b60201c565b9050806000806101000a81548173ffffffffffffffffffffffffffffffffffffffff021916908373ffffffffffffffffffffffffffffffffffffffff1602179055508073ffffffffffffffffffffffffffffffffffffffff16600073ffffffffffffffffffffffffffffffffffffffff167f8be0079c531659141344cd1fd0a4f28419497f9722a3daafe3b4186f6b6457e060405160405180910390a3506100d1565b600033905090565b6111a4806100e06000396000f3fe6080604052600436106100915760003560e01c80638da5cb5b116100595780638da5cb5b14610161578063bd097e211461018c578063e5071b8e14610196578063e581f9ee146101ad578063f2fde38b146101d857610091565b806306ead22e1461009657806312065fe0146100d85780633b66805914610103578063651d7a4c1461012e578063715018a61461014a575b600080fd5b3480156100a257600080fd5b506100bd60048036038101906100b89190610cd6565b610201565b6040516100cf96959493929190610e9b565b60405180910390f35b3480156100e457600080fd5b506100ed6104e5565b6040516100fa9190610e80565b60405180910390f35b34801561010f57600080fd5b506101186104ef565b6040516101259190610e80565b60405180910390f35b61014860048036038101906101439190610be7565b6104f5565b005b34801561015657600080fd5b5061015f610642565b005b34801561016d57600080fd5b5061017661077c565b6040516101839190610dfc565b60405180910390f35b6101946107a5565b005b3480156101a257600080fd5b506101ab6108b6565b005b3480156101b957600080fd5b506101c26108d2565b6040516101cf9190610e80565b60405180910390f35b3480156101e457600080fd5b506101ff60048036038101906101fa9190610bbe565b6108d8565b005b600360205280600052604060002060009150905080600001549080600101805461022a90611070565b80601f016020809104026020016040519081016040528092919081815260200182805461025690611070565b80156102a35780601f10610278576101008083540402835291602001916102a3565b820191906000526020600020905b81548152906001019060200180831161028657829003601f168201915b5050505050908060020180546102b890611070565b80601f01602080910402602001604051908101604052809291908181526020018280546102e490611070565b80156103315780601f1061030657610100808354040283529160200191610331565b820191906000526020600020905b81548152906001019060200180831161031457829003601f168201915b50505050509080600301805461034690611070565b80601f016020809104026020016040519081016040528092919081815260200182805461037290611070565b80156103bf5780601f10610394576101008083540402835291602001916103bf565b820191906000526020600020905b8154815290600101906020018083116103a257829003601f168201915b5050505050908060040180546103d490611070565b80601f016020809104026020016040519081016040528092919081815260200182805461040090611070565b801561044d5780601f106104225761010080835404028352916020019161044d565b820191906000526020600020905b81548152906001019060200180831161043057829003601f168201915b50505050509080600501805461046290611070565b80601f016020809104026020016040519081016040528092919081815260200182805461048e90611070565b80156104db5780601f106104b0576101008083540402835291602001916104db565b820191906000526020600020905b8154815290600101906020018083116104be57829003601f168201915b5050505050905086565b6000600154905090565b60015481565b6104fd6108b6565b346001600082825461050f9190610f9c565b925050819055506040518060c00160405280600254815260200186815260200185815260200184815260200183815260200182815250600360006002548152602001908152602001600020600082015181600001556020820151816001019080519060200190610580929190610a89565b50604082015181600201908051906020019061059d929190610a89565b5060608201518160030190805190602001906105ba929190610a89565b5060808201518160040190805190602001906105d7929190610a89565b5060a08201518160050190805190602001906105f4929190610a89565b509050507f0f0909bc37b3488d4a5ff3df1b88d9d0e30880fabd9d046ed5a6dbb616c0db86600254868686868660405161063396959493929190610e9b565b60405180910390a15050505050565b61064a610a81565b73ffffffffffffffffffffffffffffffffffffffff1661066861077c565b73ffffffffffffffffffffffffffffffffffffffff16146106be576040517f08c379a00000000000000000000000000000000000000000000000000000000081526004016106b590610e60565b60405180910390fd5b600073ffffffffffffffffffffffffffffffffffffffff1660008054906101000a900473ffffffffffffffffffffffffffffffffffffffff1673ffffffffffffffffffffffffffffffffffffffff167f8be0079c531659141344cd1fd0a4f28419497f9722a3daafe3b4186f6b6457e060405160405180910390a360008060006101000a81548173ffffffffffffffffffffffffffffffffffffffff021916908373ffffffffffffffffffffffffffffffffffffffff160217905550565b60008060009054906101000a900473ffffffffffffffffffffffffffffffffffffffff16905090565b6107ad610a81565b73ffffffffffffffffffffffffffffffffffffffff166107cb61077c565b73ffffffffffffffffffffffffffffffffffffffff1614610821576040517f08c379a000000000000000000000000000000000000000000000000000000000815260040161081890610e60565b60405180910390fd5b600034141561082f57600080fd5b3460015461083d9190610f9c565b6001819055507fed7d0ddcc17abdb3935a0a23cd93e91b449dfeac7fd0def9f481ed5b37e18c4d3334604051610874929190610e17565b60405180910390a147600154146108b4577f4e487b7100000000000000000000000000000000000000000000000000000000600052600160045260246000fd5b565b6001600260008282546108c99190610f9c565b92505081905550565b60025481565b6108e0610a81565b73ffffffffffffffffffffffffffffffffffffffff166108fe61077c565b73ffffffffffffffffffffffffffffffffffffffff1614610954576040517f08c379a000000000000000000000000000000000000000000000000000000000815260040161094b90610e60565b60405180910390fd5b600073ffffffffffffffffffffffffffffffffffffffff168173ffffffffffffffffffffffffffffffffffffffff1614156109c4576040517f08c379a00000000000000000000000000000000000000000000000000000000081526004016109bb90610e40565b60405180910390fd5b8073ffffffffffffffffffffffffffffffffffffffff1660008054906101000a900473ffffffffffffffffffffffffffffffffffffffff1673ffffffffffffffffffffffffffffffffffffffff167f8be0079c531659141344cd1fd0a4f28419497f9722a3daafe3b4186f6b6457e060405160405180910390a3806000806101000a81548173ffffffffffffffffffffffffffffffffffffffff021916908373ffffffffffffffffffffffffffffffffffffffff16021790555050565b600033905090565b828054610a9590611070565b90600052602060002090601f016020900481019282610ab75760008555610afe565b82601f10610ad057805160ff1916838001178555610afe565b82800160010185558215610afe579182015b82811115610afd578251825591602001919060010190610ae2565b5b509050610b0b9190610b0f565b5090565b5b80821115610b28576000816000905550600101610b10565b5090565b6000610b3f610b3a84610f50565b610f1f565b905082815260208101848484011115610b5757600080fd5b610b6284828561102e565b509392505050565b600081359050610b7981611140565b92915050565b600082601f830112610b9057600080fd5b8135610ba0848260208601610b2c565b91505092915050565b600081359050610bb881611157565b92915050565b600060208284031215610bd057600080fd5b6000610bde84828501610b6a565b91505092915050565b600080600080600060a08688031215610bff57600080fd5b600086013567ffffffffffffffff811115610c1957600080fd5b610c2588828901610b7f565b955050602086013567ffffffffffffffff811115610c4257600080fd5b610c4e88828901610b7f565b945050604086013567ffffffffffffffff811115610c6b57600080fd5b610c7788828901610b7f565b935050606086013567ffffffffffffffff811115610c9457600080fd5b610ca088828901610b7f565b925050608086013567ffffffffffffffff811115610cbd57600080fd5b610cc988828901610b7f565b9150509295509295909350565b600060208284031215610ce857600080fd5b6000610cf684828501610ba9565b91505092915050565b610d0881610ff2565b82525050565b6000610d1982610f80565b610d238185610f8b565b9350610d3381856020860161103d565b610d3c8161112f565b840191505092915050565b6000610d54602683610f8b565b91507f4f776e61626c653a206e6577206f776e657220697320746865207a65726f206160008301527f64647265737300000000000000000000000000000000000000000000000000006020830152604082019050919050565b6000610dba602083610f8b565b91507f4f776e61626c653a2063616c6c6572206973206e6f7420746865206f776e65726000830152602082019050919050565b610df681611024565b82525050565b6000602082019050610e116000830184610cff565b92915050565b6000604082019050610e2c6000830185610cff565b610e396020830184610ded565b9392505050565b60006020820190508181036000830152610e5981610d47565b9050919050565b60006020820190508181036000830152610e7981610dad565b9050919050565b6000602082019050610e956000830184610ded565b92915050565b600060c082019050610eb06000830189610ded565b8181036020830152610ec28188610d0e565b90508181036040830152610ed68187610d0e565b90508181036060830152610eea8186610d0e565b90508181036080830152610efe8185610d0e565b905081810360a0830152610f128184610d0e565b9050979650505050505050565b6000604051905081810181811067ffffffffffffffff82111715610f4657610f45611100565b5b8060405250919050565b600067ffffffffffffffff821115610f6b57610f6a611100565b5b601f19601f8301169050602081019050919050565b600081519050919050565b600082825260208201905092915050565b6000610fa782611024565b9150610fb283611024565b9250827fffffffffffffffffffffffffffffffffffffffffffffffffffffffffffffffff03821115610fe757610fe66110a2565b5b828201905092915050565b6000610ffd82611004565b9050919050565b600073ffffffffffffffffffffffffffffffffffffffff82169050919050565b6000819050919050565b82818337600083830152505050565b60005b8381101561105b578082015181840152602081019050611040565b8381111561106a576000848401525b50505050565b6000600282049050600182168061108857607f821691505b6020821081141561109c5761109b6110d1565b5b50919050565b7f4e487b7100000000000000000000000000000000000000000000000000000000600052601160045260246000fd5b7f4e487b7100000000000000000000000000000000000000000000000000000000600052602260045260246000fd5b7f4e487b7100000000000000000000000000000000000000000000000000000000600052604160045260246000fd5b6000601f19601f8301169050919050565b61114981610ff2565b811461115457600080fd5b50565b61116081611024565b811461116b57600080fd5b5056fea2646970667358221220142e31dfb40625bcc510a3a82ecf7f6c6b4656b33da99e443325204b54397dd764736f6c63430008000033",
  "immutableReferences": {},
  "source": "import \"../node_modules/@openzeppelin/contracts/access/Ownable.sol\";\n\npragma solidity ^0.8.0;\n\ncontract CertsContract is Ownable {\n    uint public ContractBalance;\n    uint256 public studentCount = 0;\n    mapping(uint => StudentCert) public students;\n\n    event funded(address owner, uint funding);\n    // event certAdded(StudentCert student);\n    event certAdded(uint studeintId, string student, string university, string program, string cert, string date);\n    \n    struct StudentCert {\n        uint _studentId;\n        string student;\n        string _university;\n        string _program;\n        string _cert;\n        string _date;\n    }\n\n    function addStudentCert(string memory student, string memory university, string memory program, string memory cert, string memory date) public payable {\n        incrementCount();\n        ContractBalance += msg.value;\n        students[studentCount] = StudentCert(studentCount, student, university, program, cert, date);\n        // emit certAdded(students[studentCount]);\n        emit certAdded(studentCount, student, university, program, cert, date);\n    }\n\n    // function incrementCount() internal {\n    function incrementCount() public {\n        studentCount += 1;\n    }\n    \n    // Function to get the Balance of the Contract\n    function getBalance() public view returns (uint) {\n        return ContractBalance;\n    }\n\n    // Fund the Contract\n    function fundContract() public payable onlyOwner {\n        require(msg.value != 0);\n        ContractBalance = ContractBalance + msg.value;\n        emit funded(msg.sender, msg.value);\n        assert(ContractBalance == address(this).balance);\n    }\n}",
  "sourcePath": "/Users/alouisequiatchon/home/certs-dapp/truffle/contracts/certsContract.sol",
  "compiler": {
    "name": "solc",
    "version": "0.8.0+commit.c7dfd78e.Emscripten.clang"
  },
  "schemaVersion": "3.3.4",
  "updatedAt": "2021-04-23T07:52:34.490Z",
  "networkType": "ethereum",
  "devdoc": {
    "kind": "dev",
    "methods": {
      "owner()": {
        "details": "Returns the address of the current owner."
      },
      "renounceOwnership()": {
        "details": "Leaves the contract without owner. It will not be possible to call `onlyOwner` functions anymore. Can only be called by the current owner. NOTE: Renouncing ownership will leave the contract without an owner, thereby removing any functionality that is only available to the owner."
      },
      "transferOwnership(address)": {
        "details": "Transfers ownership of the contract to a new account (`newOwner`). Can only be called by the current owner."
      }
    },
    "version": 1
  },
  "userdoc": {
    "kind": "user",
    "methods": {},
    "version": 1
  }
}