{
  "contractName": "CertsContract",
  "abi": [
    {
      "anonymous": false,
      "inputs": [
        {
          "indexed": true,
          "internalType": "address",
          "name": "previousOwner",
          "type": "address"
        },
        {
          "indexed": true,
          "internalType": "address",
          "name": "newOwner",
          "type": "address"
        }
      ],
      "name": "OwnershipTransferred",
      "type": "event"
    },
    {
      "anonymous": false,
      "inputs": [
        {
          "indexed": false,
          "internalType": "uint256",
          "name": "studeintId",
          "type": "uint256"
        },
        {
          "indexed": false,
          "internalType": "string",
          "name": "firstName",
          "type": "string"
        },
        {
          "indexed": false,
          "internalType": "string",
          "name": "lastName",
          "type": "string"
        },
        {
          "indexed": false,
          "internalType": "string",
          "name": "university",
          "type": "string"
        },
        {
          "indexed": false,
          "internalType": "string",
          "name": "program",
          "type": "string"
        },
        {
          "indexed": false,
          "internalType": "string",
          "name": "description",
          "type": "string"
        },
        {
          "indexed": false,
          "internalType": "string",
          "name": "date",
          "type": "string"
        }
      ],
      "name": "certAdded",
      "type": "event"
    },
    {
      "anonymous": false,
      "inputs": [
        {
          "indexed": false,
          "internalType": "address",
          "name": "owner",
          "type": "address"
        },
        {
          "indexed": false,
          "internalType": "uint256",
          "name": "funding",
          "type": "uint256"
        }
      ],
      "name": "funded",
      "type": "event"
    },
    {
      "inputs": [],
      "name": "ContractBalance",
      "outputs": [
        {
          "internalType": "uint256",
          "name": "",
          "type": "uint256"
        }
      ],
      "stateMutability": "view",
      "type": "function",
      "constant": true
    },
    {
      "inputs": [],
      "name": "owner",
      "outputs": [
        {
          "internalType": "address",
          "name": "",
          "type": "address"
        }
      ],
      "stateMutability": "view",
      "type": "function",
      "constant": true
    },
    {
      "inputs": [],
      "name": "renounceOwnership",
      "outputs": [],
      "stateMutability": "nonpayable",
      "type": "function"
    },
    {
      "inputs": [],
      "name": "studentCount",
      "outputs": [
        {
          "internalType": "uint256",
          "name": "",
          "type": "uint256"
        }
      ],
      "stateMutability": "view",
      "type": "function",
      "constant": true
    },
    {
      "inputs": [
        {
          "internalType": "uint256",
          "name": "",
          "type": "uint256"
        }
      ],
      "name": "students",
      "outputs": [
        {
          "internalType": "uint256",
          "name": "_studentId",
          "type": "uint256"
        },
        {
          "internalType": "string",
          "name": "_firstName",
          "type": "string"
        },
        {
          "internalType": "string",
          "name": "_lastName",
          "type": "string"
        },
        {
          "internalType": "string",
          "name": "_university",
          "type": "string"
        },
        {
          "internalType": "string",
          "name": "_program",
          "type": "string"
        },
        {
          "internalType": "string",
          "name": "_description",
          "type": "string"
        },
        {
          "internalType": "string",
          "name": "_date",
          "type": "string"
        }
      ],
      "stateMutability": "view",
      "type": "function",
      "constant": true
    },
    {
      "inputs": [
        {
          "internalType": "address",
          "name": "newOwner",
          "type": "address"
        }
      ],
      "name": "transferOwnership",
      "outputs": [],
      "stateMutability": "nonpayable",
      "type": "function"
    },
    {
      "inputs": [
        {
          "internalType": "string",
          "name": "firstName",
          "type": "string"
        },
        {
          "internalType": "string",
          "name": "lastName",
          "type": "string"
        },
        {
          "internalType": "string",
          "name": "university",
          "type": "string"
        },
        {
          "internalType": "string",
          "name": "program",
          "type": "string"
        },
        {
          "internalType": "string",
          "name": "description",
          "type": "string"
        },
        {
          "internalType": "string",
          "name": "date",
          "type": "string"
        }
      ],
      "name": "addStudentCert",
      "outputs": [],
      "stateMutability": "payable",
      "type": "function",
      "payable": true
    },
    {
      "inputs": [],
      "name": "incrementCount",
      "outputs": [],
      "stateMutability": "nonpayable",
      "type": "function"
    },
    {
      "inputs": [],
      "name": "getBalance",
      "outputs": [
        {
          "internalType": "uint256",
          "name": "",
          "type": "uint256"
        }
      ],
      "stateMutability": "view",
      "type": "function",
      "constant": true
    },
    {
      "inputs": [],
      "name": "fundContract",
      "outputs": [],
      "stateMutability": "payable",
      "type": "function",
      "payable": true
    }
  ],
  "bytecode": "0x6080604052600060025534801561001557600080fd5b5060006100266100c960201b60201c565b9050806000806101000a81548173ffffffffffffffffffffffffffffffffffffffff021916908373ffffffffffffffffffffffffffffffffffffffff1602179055508073ffffffffffffffffffffffffffffffffffffffff16600073ffffffffffffffffffffffffffffffffffffffff167f8be0079c531659141344cd1fd0a4f28419497f9722a3daafe3b4186f6b6457e060405160405180910390a3506100d1565b600033905090565b611298806100e06000396000f3fe6080604052600436106100915760003560e01c80638da5cb5b116100595780638da5cb5b14610162578063bd097e211461018d578063e5071b8e14610197578063e581f9ee146101ae578063f2fde38b146101d957610091565b806306ead22e1461009657806312065fe0146100d95780632eca972d146101045780633b66805914610120578063715018a61461014b575b600080fd5b3480156100a257600080fd5b506100bd60048036038101906100b89190610db5565b610202565b6040516100d09796959493929190610f7a565b60405180910390f35b3480156100e557600080fd5b506100ee610574565b6040516100fb9190610f5f565b60405180910390f35b61011e60048036038101906101199190610c9c565b61057e565b005b34801561012c57600080fd5b506101356106f1565b6040516101429190610f5f565b60405180910390f35b34801561015757600080fd5b506101606106f7565b005b34801561016e57600080fd5b50610177610831565b6040516101849190610edb565b60405180910390f35b61019561085a565b005b3480156101a357600080fd5b506101ac61096b565b005b3480156101ba57600080fd5b506101c3610987565b6040516101d09190610f5f565b60405180910390f35b3480156101e557600080fd5b5061020060048036038101906101fb9190610c73565b61098d565b005b600360205280600052604060002060009150905080600001549080600101805461022b90611164565b80601f016020809104026020016040519081016040528092919081815260200182805461025790611164565b80156102a45780601f10610279576101008083540402835291602001916102a4565b820191906000526020600020905b81548152906001019060200180831161028757829003601f168201915b5050505050908060020180546102b990611164565b80601f01602080910402602001604051908101604052809291908181526020018280546102e590611164565b80156103325780601f1061030757610100808354040283529160200191610332565b820191906000526020600020905b81548152906001019060200180831161031557829003601f168201915b50505050509080600301805461034790611164565b80601f016020809104026020016040519081016040528092919081815260200182805461037390611164565b80156103c05780601f10610395576101008083540402835291602001916103c0565b820191906000526020600020905b8154815290600101906020018083116103a357829003601f168201915b5050505050908060040180546103d590611164565b80601f016020809104026020016040519081016040528092919081815260200182805461040190611164565b801561044e5780601f106104235761010080835404028352916020019161044e565b820191906000526020600020905b81548152906001019060200180831161043157829003601f168201915b50505050509080600501805461046390611164565b80601f016020809104026020016040519081016040528092919081815260200182805461048f90611164565b80156104dc5780601f106104b1576101008083540402835291602001916104dc565b820191906000526020600020905b8154815290600101906020018083116104bf57829003601f168201915b5050505050908060060180546104f190611164565b80601f016020809104026020016040519081016040528092919081815260200182805461051d90611164565b801561056a5780601f1061053f5761010080835404028352916020019161056a565b820191906000526020600020905b81548152906001019060200180831161054d57829003601f168201915b5050505050905087565b6000600154905090565b61058661096b565b34600160008282546105989190611090565b925050819055506040518060e0016040528060025481526020018781526020018681526020018581526020018481526020018381526020018281525060036000600254815260200190815260200160002060008201518160000155602082015181600101908051906020019061060f929190610b3e565b50604082015181600201908051906020019061062c929190610b3e565b506060820151816003019080519060200190610649929190610b3e565b506080820151816004019080519060200190610666929190610b3e565b5060a0820151816005019080519060200190610683929190610b3e565b5060c08201518160060190805190602001906106a0929190610b3e565b509050507ffe74149a8825ece22faa82a7fca48f0be303157de1e146206d29ce721ae53e786002548787878787876040516106e19796959493929190610f7a565b60405180910390a1505050505050565b60015481565b6106ff610b36565b73ffffffffffffffffffffffffffffffffffffffff1661071d610831565b73ffffffffffffffffffffffffffffffffffffffff1614610773576040517f08c379a000000000000000000000000000000000000000000000000000000000815260040161076a90610f3f565b60405180910390fd5b600073ffffffffffffffffffffffffffffffffffffffff1660008054906101000a900473ffffffffffffffffffffffffffffffffffffffff1673ffffffffffffffffffffffffffffffffffffffff167f8be0079c531659141344cd1fd0a4f28419497f9722a3daafe3b4186f6b6457e060405160405180910390a360008060006101000a81548173ffffffffffffffffffffffffffffffffffffffff021916908373ffffffffffffffffffffffffffffffffffffffff160217905550565b60008060009054906101000a900473ffffffffffffffffffffffffffffffffffffffff16905090565b610862610b36565b73ffffffffffffffffffffffffffffffffffffffff16610880610831565b73ffffffffffffffffffffffffffffffffffffffff16146108d6576040517f08c379a00000000000000000000000000000000000000000000000000000000081526004016108cd90610f3f565b60405180910390fd5b60003414156108e457600080fd5b346001546108f29190611090565b6001819055507fed7d0ddcc17abdb3935a0a23cd93e91b449dfeac7fd0def9f481ed5b37e18c4d3334604051610929929190610ef6565b60405180910390a14760015414610969577f4e487b7100000000000000000000000000000000000000000000000000000000600052600160045260246000fd5b565b60016002600082825461097e9190611090565b92505081905550565b60025481565b610995610b36565b73ffffffffffffffffffffffffffffffffffffffff166109b3610831565b73ffffffffffffffffffffffffffffffffffffffff1614610a09576040517f08c379a0000000000000000000000000000000000000000000000000000000008152600401610a0090610f3f565b60405180910390fd5b600073ffffffffffffffffffffffffffffffffffffffff168173ffffffffffffffffffffffffffffffffffffffff161415610a79576040517f08c379a0000000000000000000000000000000000000000000000000000000008152600401610a7090610f1f565b60405180910390fd5b8073ffffffffffffffffffffffffffffffffffffffff1660008054906101000a900473ffffffffffffffffffffffffffffffffffffffff1673ffffffffffffffffffffffffffffffffffffffff167f8be0079c531659141344cd1fd0a4f28419497f9722a3daafe3b4186f6b6457e060405160405180910390a3806000806101000a81548173ffffffffffffffffffffffffffffffffffffffff021916908373ffffffffffffffffffffffffffffffffffffffff16021790555050565b600033905090565b828054610b4a90611164565b90600052602060002090601f016020900481019282610b6c5760008555610bb3565b82601f10610b8557805160ff1916838001178555610bb3565b82800160010185558215610bb3579182015b82811115610bb2578251825591602001919060010190610b97565b5b509050610bc09190610bc4565b5090565b5b80821115610bdd576000816000905550600101610bc5565b5090565b6000610bf4610bef84611044565b611013565b905082815260208101848484011115610c0c57600080fd5b610c17848285611122565b509392505050565b600081359050610c2e81611234565b92915050565b600082601f830112610c4557600080fd5b8135610c55848260208601610be1565b91505092915050565b600081359050610c6d8161124b565b92915050565b600060208284031215610c8557600080fd5b6000610c9384828501610c1f565b91505092915050565b60008060008060008060c08789031215610cb557600080fd5b600087013567ffffffffffffffff811115610ccf57600080fd5b610cdb89828a01610c34565b965050602087013567ffffffffffffffff811115610cf857600080fd5b610d0489828a01610c34565b955050604087013567ffffffffffffffff811115610d2157600080fd5b610d2d89828a01610c34565b945050606087013567ffffffffffffffff811115610d4a57600080fd5b610d5689828a01610c34565b935050608087013567ffffffffffffffff811115610d7357600080fd5b610d7f89828a01610c34565b92505060a087013567ffffffffffffffff811115610d9c57600080fd5b610da889828a01610c34565b9150509295509295509295565b600060208284031215610dc757600080fd5b6000610dd584828501610c5e565b91505092915050565b610de7816110e6565b82525050565b6000610df882611074565b610e02818561107f565b9350610e12818560208601611131565b610e1b81611223565b840191505092915050565b6000610e3360268361107f565b91507f4f776e61626c653a206e6577206f776e657220697320746865207a65726f206160008301527f64647265737300000000000000000000000000000000000000000000000000006020830152604082019050919050565b6000610e9960208361107f565b91507f4f776e61626c653a2063616c6c6572206973206e6f7420746865206f776e65726000830152602082019050919050565b610ed581611118565b82525050565b6000602082019050610ef06000830184610dde565b92915050565b6000604082019050610f0b6000830185610dde565b610f186020830184610ecc565b9392505050565b60006020820190508181036000830152610f3881610e26565b9050919050565b60006020820190508181036000830152610f5881610e8c565b9050919050565b6000602082019050610f746000830184610ecc565b92915050565b600060e082019050610f8f600083018a610ecc565b8181036020830152610fa18189610ded565b90508181036040830152610fb58188610ded565b90508181036060830152610fc98187610ded565b90508181036080830152610fdd8186610ded565b905081810360a0830152610ff18185610ded565b905081810360c08301526110058184610ded565b905098975050505050505050565b6000604051905081810181811067ffffffffffffffff8211171561103a576110396111f4565b5b8060405250919050565b600067ffffffffffffffff82111561105f5761105e6111f4565b5b601f19601f8301169050602081019050919050565b600081519050919050565b600082825260208201905092915050565b600061109b82611118565b91506110a683611118565b9250827fffffffffffffffffffffffffffffffffffffffffffffffffffffffffffffffff038211156110db576110da611196565b5b828201905092915050565b60006110f1826110f8565b9050919050565b600073ffffffffffffffffffffffffffffffffffffffff82169050919050565b6000819050919050565b82818337600083830152505050565b60005b8381101561114f578082015181840152602081019050611134565b8381111561115e576000848401525b50505050565b6000600282049050600182168061117c57607f821691505b602082108114156111905761118f6111c5565b5b50919050565b7f4e487b7100000000000000000000000000000000000000000000000000000000600052601160045260246000fd5b7f4e487b7100000000000000000000000000000000000000000000000000000000600052602260045260246000fd5b7f4e487b7100000000000000000000000000000000000000000000000000000000600052604160045260246000fd5b6000601f19601f8301169050919050565b61123d816110e6565b811461124857600080fd5b50565b61125481611118565b811461125f57600080fd5b5056fea26469706673582212208493c0cc2a5974c14124b8202355bb755de5877e6e7d7fc431bc3202cbf8eb4864736f6c63430008000033",
  "immutableReferences": {},
  "source": "import \"../node_modules/@openzeppelin/contracts/access/Ownable.sol\";\n\npragma solidity ^0.8.0;\n\ncontract CertsContract is Ownable {\n    uint public ContractBalance;\n    uint256 public studentCount = 0;\n    mapping(uint => StudentCert) public students;\n\n    event funded(address owner, uint funding);\n    // event certAdded(StudentCert student);\n    event certAdded(uint studeintId, string firstName, string lastName, string university, string program, string description, string date);\n    \n    struct StudentCert {\n        uint _studentId;\n        string _firstName;\n        string _lastName;\n        string _university;\n        string _program;\n        string _description;\n        string _date;\n    }\n\n    function addStudentCert(string memory firstName, string memory lastName, string memory university, string memory program, string memory description, string memory date) public payable {\n        incrementCount();\n        ContractBalance += msg.value;\n        students[studentCount] = StudentCert(studentCount, firstName, lastName, university, program, description, date);\n        // emit certAdded(students[studentCount]);\n        emit certAdded(studentCount, firstName, lastName, university, program, description, date);\n    }\n\n    // function incrementCount() internal {\n    function incrementCount() public {\n        studentCount += 1;\n    }\n    \n    // Function to get the Balance of the Contract\n    function getBalance() public view returns (uint) {\n        return ContractBalance;\n    }\n\n    // Fund the Contract\n    function fundContract() public payable onlyOwner {\n        require(msg.value != 0);\n        ContractBalance = ContractBalance + msg.value;\n        emit funded(msg.sender, msg.value);\n        assert(ContractBalance == address(this).balance);\n    }\n}",
  "sourcePath": "/Users/alouisequiatchon/home/certs-dapp/truffle/contracts/certsContract.sol",
  "compiler": {
    "name": "solc",
    "version": "0.8.0+commit.c7dfd78e.Emscripten.clang"
  },
  "schemaVersion": "3.3.4",
  "updatedAt": "2021-04-23T03:08:23.043Z",
  "networkType": "ethereum",
  "devdoc": {
    "kind": "dev",
    "methods": {
      "owner()": {
        "details": "Returns the address of the current owner."
      },
      "renounceOwnership()": {
        "details": "Leaves the contract without owner. It will not be possible to call `onlyOwner` functions anymore. Can only be called by the current owner. NOTE: Renouncing ownership will leave the contract without an owner, thereby removing any functionality that is only available to the owner."
      },
      "transferOwnership(address)": {
        "details": "Transfers ownership of the contract to a new account (`newOwner`). Can only be called by the current owner."
      }
    },
    "version": 1
  },
  "userdoc": {
    "kind": "user",
    "methods": {},
    "version": 1
  }
}