{
  "contractName": "FlipContract",
  "abi": [
    {
      "anonymous": false,
      "inputs": [
        {
          "indexed": true,
          "internalType": "address",
          "name": "previousOwner",
          "type": "address"
        },
        {
          "indexed": true,
          "internalType": "address",
          "name": "newOwner",
          "type": "address"
        }
      ],
      "name": "OwnershipTransferred",
      "type": "event"
    },
    {
      "anonymous": false,
      "inputs": [
        {
          "indexed": true,
          "internalType": "address",
          "name": "user",
          "type": "address"
        },
        {
          "indexed": true,
          "internalType": "uint256",
          "name": "bet",
          "type": "uint256"
        },
        {
          "indexed": true,
          "internalType": "bool",
          "name": "win",
          "type": "bool"
        },
        {
          "indexed": false,
          "internalType": "uint8",
          "name": "side",
          "type": "uint8"
        }
      ],
      "name": "bet",
      "type": "event"
    },
    {
      "anonymous": false,
      "inputs": [
        {
          "indexed": false,
          "internalType": "address",
          "name": "owner",
          "type": "address"
        },
        {
          "indexed": false,
          "internalType": "uint256",
          "name": "funding",
          "type": "uint256"
        }
      ],
      "name": "funded",
      "type": "event"
    },
    {
      "inputs": [],
      "name": "ContractBalance",
      "outputs": [
        {
          "internalType": "uint256",
          "name": "",
          "type": "uint256"
        }
      ],
      "stateMutability": "view",
      "type": "function"
    },
    {
      "inputs": [],
      "name": "owner",
      "outputs": [
        {
          "internalType": "address",
          "name": "",
          "type": "address"
        }
      ],
      "stateMutability": "view",
      "type": "function"
    },
    {
      "inputs": [],
      "name": "renounceOwnership",
      "outputs": [],
      "stateMutability": "nonpayable",
      "type": "function"
    },
    {
      "inputs": [
        {
          "internalType": "address",
          "name": "newOwner",
          "type": "address"
        }
      ],
      "name": "transferOwnership",
      "outputs": [],
      "stateMutability": "nonpayable",
      "type": "function"
    },
    {
      "inputs": [
        {
          "internalType": "uint8",
          "name": "side",
          "type": "uint8"
        }
      ],
      "name": "flip",
      "outputs": [
        {
          "internalType": "bool",
          "name": "",
          "type": "bool"
        }
      ],
      "stateMutability": "payable",
      "type": "function"
    },
    {
      "inputs": [],
      "name": "withdrawAll",
      "outputs": [
        {
          "internalType": "uint256",
          "name": "",
          "type": "uint256"
        }
      ],
      "stateMutability": "nonpayable",
      "type": "function"
    },
    {
      "inputs": [],
      "name": "getBalance",
      "outputs": [
        {
          "internalType": "uint256",
          "name": "",
          "type": "uint256"
        }
      ],
      "stateMutability": "view",
      "type": "function"
    },
    {
      "inputs": [],
      "name": "fundContract",
      "outputs": [],
      "stateMutability": "payable",
      "type": "function"
    }
  ],
  "bytecode": "0x608060405234801561001057600080fd5b5060006100216100c460201b60201c565b9050806000806101000a81548173ffffffffffffffffffffffffffffffffffffffff021916908373ffffffffffffffffffffffffffffffffffffffff1602179055508073ffffffffffffffffffffffffffffffffffffffff16600073ffffffffffffffffffffffffffffffffffffffff167f8be0079c531659141344cd1fd0a4f28419497f9722a3daafe3b4186f6b6457e060405160405180910390a3506100cc565b600033905090565b610e02806100db6000396000f3fe60806040526004361061007b5760003560e01c8063853828b61161004e578063853828b61461011d5780638da5cb5b14610148578063bd097e2114610173578063f2fde38b1461017d5761007b565b806312065fe0146100805780633b668059146100ab578063638c0637146100d6578063715018a614610106575b600080fd5b34801561008c57600080fd5b506100956101a6565b6040516100a29190610b8f565b60405180910390f35b3480156100b757600080fd5b506100c06101b0565b6040516100cd9190610b8f565b60405180910390f35b6100f060048036038101906100eb91906108d9565b6101b6565b6040516100fd9190610af4565b60405180910390f35b34801561011257600080fd5b5061011b61035f565b005b34801561012957600080fd5b50610132610499565b60405161013f9190610b8f565b60405180910390f35b34801561015457600080fd5b5061015d61059b565b60405161016a9190610ab0565b60405180910390f35b61017b6105c4565b005b34801561018957600080fd5b506101a4600480360381019061019f91906108b0565b6106d5565b005b6000600154905090565b60015481565b60006002346101c59190610c2c565b471015610207576040517f08c379a00000000000000000000000000000000000000000000000000000000081526004016101fe90610b0f565b60405180910390fd5b60008260ff16148061021c575060018260ff16145b61025b576040517f08c379a000000000000000000000000000000000000000000000000000000000815260040161025290610b6f565b60405180910390fd5b60008260ff1660024261026e9190610d0f565b14156102e95734600160008282546102869190610c86565b925050819055503373ffffffffffffffffffffffffffffffffffffffff166108fc6002346102b49190610c2c565b9081150290604051600060405180830381858888f193505050501580156102df573d6000803e3d6000fd5b5060019050610307565b34600160008282546102fb9190610bd6565b92505081905550600090505b801515343373ffffffffffffffffffffffffffffffffffffffff167f271b3e8d94a67ce5e9cee03d78c310019308ea7075468a4eb2bac8b027b14c4d866040516103519190610baa565b60405180910390a450919050565b61036761087e565b73ffffffffffffffffffffffffffffffffffffffff1661038561059b565b73ffffffffffffffffffffffffffffffffffffffff16146103db576040517f08c379a00000000000000000000000000000000000000000000000000000000081526004016103d290610b4f565b60405180910390fd5b600073ffffffffffffffffffffffffffffffffffffffff1660008054906101000a900473ffffffffffffffffffffffffffffffffffffffff1673ffffffffffffffffffffffffffffffffffffffff167f8be0079c531659141344cd1fd0a4f28419497f9722a3daafe3b4186f6b6457e060405160405180910390a360008060006101000a81548173ffffffffffffffffffffffffffffffffffffffff021916908373ffffffffffffffffffffffffffffffffffffffff160217905550565b60006104a361087e565b73ffffffffffffffffffffffffffffffffffffffff166104c161059b565b73ffffffffffffffffffffffffffffffffffffffff1614610517576040517f08c379a000000000000000000000000000000000000000000000000000000000815260040161050e90610b4f565b60405180910390fd5b3373ffffffffffffffffffffffffffffffffffffffff166108fc479081150290604051600060405180830381858888f1935050505015801561055d573d6000803e3d6000fd5b5060004714610595577f4e487b7100000000000000000000000000000000000000000000000000000000600052600160045260246000fd5b47905090565b60008060009054906101000a900473ffffffffffffffffffffffffffffffffffffffff16905090565b6105cc61087e565b73ffffffffffffffffffffffffffffffffffffffff166105ea61059b565b73ffffffffffffffffffffffffffffffffffffffff1614610640576040517f08c379a000000000000000000000000000000000000000000000000000000000815260040161063790610b4f565b60405180910390fd5b600034141561064e57600080fd5b3460015461065c9190610bd6565b6001819055507fed7d0ddcc17abdb3935a0a23cd93e91b449dfeac7fd0def9f481ed5b37e18c4d3334604051610693929190610acb565b60405180910390a147600154146106d3577f4e487b7100000000000000000000000000000000000000000000000000000000600052600160045260246000fd5b565b6106dd61087e565b73ffffffffffffffffffffffffffffffffffffffff166106fb61059b565b73ffffffffffffffffffffffffffffffffffffffff1614610751576040517f08c379a000000000000000000000000000000000000000000000000000000000815260040161074890610b4f565b60405180910390fd5b600073ffffffffffffffffffffffffffffffffffffffff168173ffffffffffffffffffffffffffffffffffffffff1614156107c1576040517f08c379a00000000000000000000000000000000000000000000000000000000081526004016107b890610b2f565b60405180910390fd5b8073ffffffffffffffffffffffffffffffffffffffff1660008054906101000a900473ffffffffffffffffffffffffffffffffffffffff1673ffffffffffffffffffffffffffffffffffffffff167f8be0079c531659141344cd1fd0a4f28419497f9722a3daafe3b4186f6b6457e060405160405180910390a3806000806101000a81548173ffffffffffffffffffffffffffffffffffffffff021916908373ffffffffffffffffffffffffffffffffffffffff16021790555050565b600033905090565b60008135905061089581610d9e565b92915050565b6000813590506108aa81610db5565b92915050565b6000602082840312156108c257600080fd5b60006108d084828501610886565b91505092915050565b6000602082840312156108eb57600080fd5b60006108f98482850161089b565b91505092915050565b61090b81610cba565b82525050565b61091a81610ccc565b82525050565b600061092d602183610bc5565b91507f54686520636f6e7472616374206861736e277420656e6f756768742066756e6460008301527f73000000000000000000000000000000000000000000000000000000000000006020830152604082019050919050565b6000610993602683610bc5565b91507f4f776e61626c653a206e6577206f776e657220697320746865207a65726f206160008301527f64647265737300000000000000000000000000000000000000000000000000006020830152604082019050919050565b60006109f9602083610bc5565b91507f4f776e61626c653a2063616c6c6572206973206e6f7420746865206f776e65726000830152602082019050919050565b6000610a39602283610bc5565b91507f496e636f727265637420736964652c206e6565647320746f2062652030206f7260008301527f20310000000000000000000000000000000000000000000000000000000000006020830152604082019050919050565b610a9b81610cf8565b82525050565b610aaa81610d02565b82525050565b6000602082019050610ac56000830184610902565b92915050565b6000604082019050610ae06000830185610902565b610aed6020830184610a92565b9392505050565b6000602082019050610b096000830184610911565b92915050565b60006020820190508181036000830152610b2881610920565b9050919050565b60006020820190508181036000830152610b4881610986565b9050919050565b60006020820190508181036000830152610b68816109ec565b9050919050565b60006020820190508181036000830152610b8881610a2c565b9050919050565b6000602082019050610ba46000830184610a92565b92915050565b6000602082019050610bbf6000830184610aa1565b92915050565b600082825260208201905092915050565b6000610be182610cf8565b9150610bec83610cf8565b9250827fffffffffffffffffffffffffffffffffffffffffffffffffffffffffffffffff03821115610c2157610c20610d40565b5b828201905092915050565b6000610c3782610cf8565b9150610c4283610cf8565b9250817fffffffffffffffffffffffffffffffffffffffffffffffffffffffffffffffff0483118215151615610c7b57610c7a610d40565b5b828202905092915050565b6000610c9182610cf8565b9150610c9c83610cf8565b925082821015610caf57610cae610d40565b5b828203905092915050565b6000610cc582610cd8565b9050919050565b60008115159050919050565b600073ffffffffffffffffffffffffffffffffffffffff82169050919050565b6000819050919050565b600060ff82169050919050565b6000610d1a82610cf8565b9150610d2583610cf8565b925082610d3557610d34610d6f565b5b828206905092915050565b7f4e487b7100000000000000000000000000000000000000000000000000000000600052601160045260246000fd5b7f4e487b7100000000000000000000000000000000000000000000000000000000600052601260045260246000fd5b610da781610cba565b8114610db257600080fd5b50565b610dbe81610d02565b8114610dc957600080fd5b5056fea26469706673582212202e9d8e41019c9fef3f56a724ddcce9aa8f6200123f4c0f760dbf336caf8adc8164736f6c63430008000033",
  "immutableReferences": {},
  "source": "import \"../node_modules/@openzeppelin/contracts/access/Ownable.sol\";\n// import \"../node_modules/@openzeppelin/contracts/math/SafeMath.sol\";\n\npragma solidity ^0.8.0;\n\ncontract FlipContract is Ownable {\n    \n    // using SafeMath for uint256;\n\n    uint public ContractBalance;\n\n    event bet(address indexed user, uint indexed bet, bool indexed win, uint8 side);\n    event funded(address owner, uint funding);\n\n    // Function to simulate coin flip 50/50 randomnes\n    function flip(uint8 side) public payable returns(bool){\n        // require(address(this).balance >= msg.value.mul(2), \"The contract hasn't enought funds\");\n        require(address(this).balance >= msg.value * 2, \"The contract hasn't enought funds\");\n        require(side == 0 || side == 1, \"Incorrect side, needs to be 0 or 1\");\n        bool win;\n        if(block.timestamp % 2 == side){\n            ContractBalance -= msg.value;\n            payable(msg.sender).transfer(msg.value * 2);\n            win = true;\n        }\n        else{\n            ContractBalance += msg.value;\n            win = false;\n        }\n        emit bet(msg.sender, msg.value, win, side);\n    }\n    // Function to Withdraw Funds\n    function withdrawAll() public onlyOwner returns(uint){\n        payable(msg.sender).transfer(address(this).balance);\n        assert(address(this).balance == 0);\n        return address(this).balance;\n    }\n    // Function to get the Balance of the Contract\n    function getBalance() public view returns (uint) {\n        return ContractBalance;\n    }\n    // Fund the Contract\n    function fundContract() public payable onlyOwner {\n        require(msg.value != 0);\n        // ContractBalance = ContractBalance.add(msg.value);\n        ContractBalance = ContractBalance + msg.value;\n        emit funded(msg.sender, msg.value);\n        assert(ContractBalance == address(this).balance);\n    }\n\n}",
  "sourcePath": "/Users/alouisequiatchon/home/certs-dapp/truffle/contracts/flipcontract.sol",
  "compiler": {
    "name": "solc",
    "version": "0.8.0+commit.c7dfd78e.Emscripten.clang"
  },
  "schemaVersion": "3.3.4",
  "updatedAt": "2021-04-21T07:15:09.401Z",
  "devdoc": {
    "kind": "dev",
    "methods": {
      "owner()": {
        "details": "Returns the address of the current owner."
      },
      "renounceOwnership()": {
        "details": "Leaves the contract without owner. It will not be possible to call `onlyOwner` functions anymore. Can only be called by the current owner. NOTE: Renouncing ownership will leave the contract without an owner, thereby removing any functionality that is only available to the owner."
      },
      "transferOwnership(address)": {
        "details": "Transfers ownership of the contract to a new account (`newOwner`). Can only be called by the current owner."
      }
    },
    "version": 1
  },
  "userdoc": {
    "kind": "user",
    "methods": {},
    "version": 1
  }
}